:100000000C9462000C948A000C948A000C948A0070
:100010000C948A000C948A000C948A000C948A0038
:100020000C948A000C948A000C948A000C948A0028
:100030000C948A000C948A000C948A000C948A0018
:100040000C94E4020C948A000C948A000C948A00AC
:100050000C948A000C948A000C948A000C948A00F8
:100060000C948A000C948A000000000024002700F1
:100070002A0000000000250028002B0000000000DE
:1000800023002600290004040404040404040202DA
:100090000202020203030303030301020408102007
:1000A0004080010204081020010204081020000012
:1000B0000008000201000003040700000000000027
:1000C0000000230411241FBECFEFD8E0DEBFCDBF58
:1000D00011E0A0E0B1E0E2E9F8E002C005900D9285
:1000E000A031B107D9F721E0A0E1B1E001C01D9234
:1000F000A333B207E1F710E0C2E6D0E004C02197D5
:10010000FE010E944104C136D107C9F70E942E03A7
:100110000C9447040C940000AF92BF92CF92DF92F0
:10012000EF92FF920F931F93CF93DF936C017B01AC
:100130008B01040F151FEB015E01AE18BF08C0173D
:10014000D10759F06991D601ED91FC910190F081B0
:10015000E02DC6010995892B79F7C501DF91CF9173
:100160001F910F91FF90EF90DF90CF90BF90AF90D5
:100170000895833081F028F4813099F08230A9F01D
:1001800008958730A9F08830C9F08430B1F48091A7
:1001900080008F7D03C0809180008F7780938000E6
:1001A000089584B58F7784BD089584B58F7DFBCF86
:1001B0008091B0008F778093B00008958091B00057
:1001C0008F7DF9CF1F93CF93DF93282F30E0F90174
:1001D000E255FF4F8491F901E656FF4FD491F901A2
:1001E000EA57FF4FC491CC23A9F0162F81110E942A
:1001F000B900EC2FF0E0EE0FFF1FEE58FF4FA59176
:10020000B4918FB7F894EC91111108C0D095DE230A
:10021000DC938FBFDF91CF911F910895DE2BF8CF34
:10022000CF93DF9390E0FC01E656FF4F24918A576D
:100230009F4FFC0184918823D1F090E0880F991F93
:10024000FC01E859FF4FA591B491FC01EE58FF4F16
:10025000C591D49161110EC09FB7F8948C91E22F93
:10026000E0958E238C932881E223E8839FBFDF9162
:10027000CF9108958FB7F894EC91E22BEC938FBF58
:10028000F6CF3FB7F8948091150190911601A09197
:100290001701B091180126B5A89B05C02F3F19F092
:1002A0000196A11DB11D3FBFBA2FA92F982F8827F6
:1002B000BC01CD01620F711D811D911D42E0660FD1
:1002C000771F881F991F4A95D1F708958F929F92A3
:1002D000AF92BF92CF92DF92EF92FF924B015C01FF
:1002E0000E9441016B017C010E9441016C197D0952
:1002F0008E099F09683E734081059105A8F321E0AE
:10030000821A9108A108B10888EEC80E83E0D81EB1
:10031000E11CF11C81149104A104B10429F7FF90A0
:10032000EF90DF90CF90BF90AF909F908F90089507
:10033000089590E080E00895CF93DF93EC0160E0B2
:100340008E810E94E20061E08E810E94E20060E006
:100350008E810E94E2008BE891E00197F1F7DF9136
:10036000CF910895CF92DF92EF92FF920F931F9358
:10037000CF93DF936C017C0187E0E80EF11CD0E0A5
:10038000C0E0062F10E0B8010C2E02C075956795ED
:100390000A94E2F76170F70181917F010E94E20007
:1003A0002196C430D10579F7C601DF91CF911F9115
:1003B0000F91FF90EF90DF90CF900C949C01CF9223
:1003C000DF92EF92FF920F931F93CF93DF93EC0195
:1003D000F62E642F8C810E94E2008D818F3F19F0F0
:1003E00060E00E94E2000F2D10E08F8584FF25C0A1
:1003F0006E0187E0C80ED11CF12CE12CB8010E2C47
:1004000002C0759567950A94E2F76170F6018191D3
:100410006F010E94E200FFEFEF1AFF0A88E0E81682
:10042000F10461F7CE01DF91CF911F910F91FF9001
:10043000EF90DF90CF900C949C01B80184E075950B
:1004400067958A95E1F7CE010E94B2016F2DCE012A
:10045000DF91CF911F910F91FF90EF90DF90CF90A0
:100460000C94B20140E0682F8BE191E00C94DF0125
:10047000CF93DF93823029F490912A019860909372
:100480002A0180932E0110922F0180E48093300185
:1004900080E18093310180E58093320161E08091B9
:1004A0001F010E941001809120018F3F19F061E02F
:1004B0000E94100161E0809121010E941001CBE1B6
:1004C000D1E09E012B51314080912A0184FD0BC067
:1004D00084E090E021962817390744F461E08E818A
:1004E0000E941001EECF88E090E0F4CF8BE39DE016
:1004F0000197F1F760E080911F010E94E20060E047
:10050000809121010E94E200809120018F3F19F02B
:1005100060E00E94E20080912A0184FD39C063E01E
:100520008BE191E00E94B201CBE4D6E4CE010197C9
:10053000F1F763E08BE191E00E94B2012197F1F7BE
:1005400063E08BE191E00E94B20183E592E00197C4
:10055000F1F762E08BE191E00E94B20180912A0103
:1005600080620E94320284E080932B018CE00E9422
:10057000320281E00E9432028BE39FE10197F1F7A2
:1005800082E080932C0186E0DF91CF910C943202BF
:1005900080620E9432028BE496E40197F1F7809129
:1005A0002A0180620E94320283E592E00197F1F70E
:1005B00080912A0180620E943202D0CF41E00E94E5
:1005C000DF0181E090E008951F920F920FB60F9225
:1005D00011242F933F938F939F93AF93BF93809159
:1005E000110190911201A0911301B0911401309169
:1005F000100123E0230F2D3758F50196A11DB11DE1
:10060000209310018093110190931201A093130184
:10061000B09314018091150190911601A0911701DA
:10062000B09118010196A11DB11D80931501909301
:100630001601A0931701B0931801BF91AF919F913C
:100640008F913F912F910F900FBE0F901F90189593
:1006500026E8230F0296A11DB11DD2CF789484B550
:10066000826084BD84B5816084BD85B5826085BDAE
:1006700085B5816085BD80916E00816080936E003C
:10068000109281008091810082608093810080912E
:1006900081008160809381008091800081608093DF
:1006A00080008091B10084608093B1008091B0009F
:1006B00081608093B00080917A00846080937A009A
:1006C00080917A00826080937A0080917A008160C4
:1006D00080937A0080917A00806880937A001092EB
:1006E000C10060E080E00E94100160E081E00E94B3
:1006F000100160E082E00E94100160E083E00E944F
:10070000100160E084E00E94100160E085E00E943A
:10071000100160E086E00E94100160E087E00E9426
:10072000100161E08EE00E94100161E08FE00E9404
:10073000100182E00E94380200E010E061E080E1F8
:100740000E94100161E080E10E94E200C091190165
:10075000D0911A01209709F06AC061E080E10E94FF
:10076000100160E080E10E94E20061E08EE00E9402
:10077000100161E08EE00E94E20064EF71E080E031
:1007800090E00E94660161E08EE00E94100160E04E
:100790008EE00E94E200CC50DE4FD0931A01C0934D
:1007A0001901E1E080912E018111E0E0E195F0E096
:1007B000E55EFE4F848980680E943202C7E0D0E087
:1007C000FE01E255FF4F8491FE01E656FF4FE49093
:1007D000FE01EA57FF4FF490FF2091F081110E9433
:1007E000B900EF2DF0E0EE0FFF1FE458FF4FA59189
:1007F000B491EC91EE2241E050E06CE071E021F424
:1008000041E050E06EE071E08BE191E00E948C00ED
:100810002197B0F664E670E080E090E00E94660107
:100820000115110509F48ACF0E94000087CFC43F4B
:1008300081E0D8070CF499CF61E08FE00E941001AD
:1008400061E08FE090CFEBE1F1E01382128284E06F
:1008500091E09183808388E084838FEF858389E0B2
:1008600086838AE087838BE080878CE081878DE0B8
:1008700082871386148615861686178681E00C9467
:100880003802EE0FFF1F0590F491E02D0994F894C3
:02089000FFCF98
:1008920000000000DE028C00990198013100300056
:00000001FF
