:100000000C9462000C948A000C948A000C948A0070
:100010000C948A000C948A000C948A000C948A0038
:100020000C948A000C948A000C948A000C948A0028
:100030000C948A000C948A000C948A000C948A0018
:100040000C94B2020C948A000C948A000C948A00DE
:100050000C948A000C948A000C948A000C948A00F8
:100060000C948A000C948A000000000024002700F1
:100070002A0000000000250028002B0000000000DE
:1000800023002600290004040404040404040202DA
:100090000202020203030303030301020408102007
:1000A0004080010204081020010204081020000012
:1000B0000008000201000003040700000000000027
:1000C0000000C80311241FBECFEFD8E0DEBFCDBFB4
:1000D00011E0A0E0B1E0ECEDF7E002C005900D9278
:1000E000A031B107D9F721E0A0E1B1E001C01D9234
:1000F000A133B207E1F710E0C2E6D0E004C02197D7
:10010000FE010E94E603C136D107C9F70E94FC0236
:100110000C94EC030C940000AF92BF92CF92DF924C
:10012000EF92FF920F931F93CF93DF936C017B01AC
:100130008B01040F151FEB015E01AE18BF08C0173D
:10014000D10759F06991D601ED91FC910190F081B0
:10015000E02DC6010995892B79F7C501DF91CF9173
:100160001F910F91FF90EF90DF90CF90BF90AF90D5
:100170000895833081F028F4813099F08230A9F01D
:1001800008958730A9F08830C9F08430B1F48091A7
:1001900080008F7D03C0809180008F7780938000E6
:1001A000089584B58F7784BD089584B58F7DFBCF86
:1001B0008091B0008F778093B00008958091B00057
:1001C0008F7DF9CF1F93CF93DF93282F30E0F90174
:1001D000E255FF4F8491F901E656FF4FD491F901A2
:1001E000EA57FF4FC491CC23A9F0162F81110E942A
:1001F000B900EC2FF0E0EE0FFF1FEE58FF4FA59176
:10020000B4918FB7F894EC91111108C0D095DE230A
:10021000DC938FBFDF91CF911F910895DE2BF8CF34
:10022000CF93DF9390E0FC01E656FF4F24918A576D
:100230009F4FFC0184918823D1F090E0880F991F93
:10024000FC01E859FF4FA591B491FC01EE58FF4F16
:10025000C591D49161110EC09FB7F8948C91E22F93
:10026000E0958E238C932881E223E8839FBFDF9162
:10027000CF9108958FB7F894EC91E22BEC938FBF58
:10028000F6CF3FB7F8948091150190911601A09197
:100290001701B091180126B5A89B05C02F3F19F092
:1002A0000196A11DB11D3FBFBA2FA92F982F8827F6
:1002B000BC01CD01620F711D811D911D42E0660FD1
:1002C000771F881F991F4A95D1F70895089590E0E8
:1002D00080E00895CF93DF93EC0160E08E810E946F
:1002E000E20061E08E810E94E20060E08E810E9467
:1002F000E2008BE891E00197F1F7DF91CF9108954B
:10030000CF92DF92EF92FF920F931F93CF93DF93E1
:100310006C017C0187E0E80EF11CD0E0C0E0062F04
:1003200010E0B8010C2E02C0759567950A94E2F7AB
:100330006170F70181917F010E94E2002196C43033
:10034000D10579F7C601DF91CF911F910F91FF90F1
:10035000EF90DF90CF900C946A01CF92DF92EF92F2
:10036000FF920F931F93CF93DF93EC01F62E642F30
:100370008C810E94E2008D818F3F19F060E00E9425
:10038000E2000F2D10E08F8584FF25C06E0187E00D
:10039000C80ED11CF12CE12CB8010E2C02C07595B1
:1003A00067950A94E2F76170F60181916F010E94EE
:1003B000E200FFEFEF1AFF0A88E0E816F10461F7A8
:1003C000CE01DF91CF911F910F91FF90EF90DF90C1
:1003D000CF900C946A01B80184E0759567958A9571
:1003E000E1F7CE010E9480016F2DCE01DF91CF9108
:1003F0001F910F91FF90EF90DF90CF900C948001B0
:1004000040E0682F89E191E00C94AD01CF93DF9338
:10041000823029F49091280198609093280180936C
:100420002C0110922D0180E480932E0180E18093B5
:100430002F0180E58093300161E080911D010E94D1
:10044000100180911E018F3F19F061E00E941001A0
:1004500061E080911F010E941001C9E1D1E09E017D
:10046000295131408091280184FD0BC084E090E047
:1004700021962817390744F461E08E810E9410010B
:10048000EECF88E090E0F4CF8BE39DE00197F1F7A9
:1004900060E080911D010E94E20060E080911F01F8
:1004A0000E94E20080911E018F3F19F060E00E94DF
:1004B000E2008091280184FD39C063E089E191E088
:1004C0000E948001CBE4D6E4CE010197F1F763E00E
:1004D00089E191E00E9480012197F1F763E089E1D1
:1004E00091E00E94800183E592E00197F1F762E0DC
:1004F00089E191E00E9480018091280180620E9440
:10050000000284E0809329018CE00E94000281E0D7
:100510000E9400028BE39FE10197F1F782E0809354
:100520002A0186E0DF91CF910C94000280620E9444
:1005300000028BE496E40197F1F780912801806234
:100540000E94000283E592E00197F1F78091280173
:1005500080620E940002D0CF41E00E94AD0181E0A4
:1005600090E008951F920F920FB60F9211242F93CF
:100570003F938F939F93AF93BF938091110190917D
:100580001201A0911301B09114013091100123E0E8
:10059000230F2D3758F50196A11DB11D2093100191
:1005A0008093110190931201A0931301B093140151
:1005B0008091150190911601A0911701B091180139
:1005C0000196A11DB11D8093150190931601A09372
:1005D0001701B0931801BF91AF919F918F913F91F7
:1005E0002F910F900FBE0F901F90189526E8230FA4
:1005F0000296A11DB11DD2CF789484B5826084BDCE
:1006000084B5816084BD85B5826085BD85B5816016
:1006100085BD80916E00816080936E001092810094
:10062000809181008260809381008091810081604F
:100630008093810080918000816080938000809110
:10064000B10084608093B1008091B000816080939C
:10065000B00080917A00846080937A0080917A0063
:10066000826080937A0080917A00816080937A0022
:1006700080917A00806880937A001092C10060E0D7
:1006800080E00E94100160E081E00E94100160E0C3
:1006900082E00E94100160E083E00E94100160E0AF
:1006A00084E00E94100160E085E00E94100160E09B
:1006B00086E00E94100160E087E00E94100182E065
:1006C0000E94060200E010E0E1E080912C0181111F
:1006D000E0E0E195F0E0E75EFE4F848980680E94EB
:1006E0000002C7E0D0E0FE01E255FF4F8491FE0119
:1006F000E656FF4FE490FE01EA57FF4FF490FF20CB
:1007000091F081110E94B900EF2DF0E0EE0FFF1F74
:10071000E458FF4FA591B491EC91EE2241E050E0F6
:100720006CE071E021F441E050E06EE071E089E1BD
:1007300091E00E948C002197B0F60E9441014B018C
:100740005C0184E6C82ED12CE12CF12C0E944101E1
:10075000681979098A099B09683E734081059105EA
:10076000A8F381E0C81AD108E108F10828EE820E4A
:1007700023E0921EA11CB11CC114D104E104F104B8
:1007800029F70115110509F49FCF0E9400009CCFA5
:10079000E9E1F1E01382128284E091E091838083A9
:1007A00088E084838FEF858389E086838AE087836E
:1007B0008BE080878CE081878DE0828713861486AA
:1007C00015861686178681E00C940602EE0FFF1F31
:0C07D0000590F491E02D0994F894FFCFFF
:1007DC0000000000AC028C006701660131003000A3
:00000001FF
